{
  "_format": "hh-sol-artifact-1",
  "contractName": "ResilientHer",
  "sourceName": "contracts/ResilientHer.sol",
  "abi": [
    {
      "inputs": [
        {
          "internalType": "string",
          "name": "uri",
          "type": "string"
        },
        {
          "internalType": "bytes32",
          "name": "merkleroot",
          "type": "bytes32"
        },
        {
          "internalType": "address",
          "name": "_proxyRegistryAddress",
          "type": "address"
        }
      ],
      "stateMutability": "nonpayable",
      "type": "constructor"
    },
    {
      "anonymous": false,
      "inputs": [
        {
          "indexed": true,
          "internalType": "address",
          "name": "owner",
          "type": "address"
        },
        {
          "indexed": true,
          "internalType": "address",
          "name": "approved",
          "type": "address"
        },
        {
          "indexed": true,
          "internalType": "uint256",
          "name": "tokenId",
          "type": "uint256"
        }
      ],
      "name": "Approval",
      "type": "event"
    },
    {
      "anonymous": false,
      "inputs": [
        {
          "indexed": true,
          "internalType": "address",
          "name": "owner",
          "type": "address"
        },
        {
          "indexed": true,
          "internalType": "address",
          "name": "operator",
          "type": "address"
        },
        {
          "indexed": false,
          "internalType": "bool",
          "name": "approved",
          "type": "bool"
        }
      ],
      "name": "ApprovalForAll",
      "type": "event"
    },
    {
      "anonymous": false,
      "inputs": [
        {
          "indexed": true,
          "internalType": "contract IERC20",
          "name": "token",
          "type": "address"
        },
        {
          "indexed": false,
          "internalType": "address",
          "name": "to",
          "type": "address"
        },
        {
          "indexed": false,
          "internalType": "uint256",
          "name": "amount",
          "type": "uint256"
        }
      ],
      "name": "ERC20PaymentReleased",
      "type": "event"
    },
    {
      "anonymous": false,
      "inputs": [
        {
          "indexed": true,
          "internalType": "address",
          "name": "previousOwner",
          "type": "address"
        },
        {
          "indexed": true,
          "internalType": "address",
          "name": "newOwner",
          "type": "address"
        }
      ],
      "name": "OwnershipTransferred",
      "type": "event"
    },
    {
      "anonymous": false,
      "inputs": [
        {
          "indexed": false,
          "internalType": "address",
          "name": "account",
          "type": "address"
        },
        {
          "indexed": false,
          "internalType": "uint256",
          "name": "shares",
          "type": "uint256"
        }
      ],
      "name": "PayeeAdded",
      "type": "event"
    },
    {
      "anonymous": false,
      "inputs": [
        {
          "indexed": false,
          "internalType": "address",
          "name": "from",
          "type": "address"
        },
        {
          "indexed": false,
          "internalType": "uint256",
          "name": "amount",
          "type": "uint256"
        }
      ],
      "name": "PaymentReceived",
      "type": "event"
    },
    {
      "anonymous": false,
      "inputs": [
        {
          "indexed": false,
          "internalType": "address",
          "name": "to",
          "type": "address"
        },
        {
          "indexed": false,
          "internalType": "uint256",
          "name": "amount",
          "type": "uint256"
        }
      ],
      "name": "PaymentReleased",
      "type": "event"
    },
    {
      "anonymous": false,
      "inputs": [
        {
          "indexed": true,
          "internalType": "address",
          "name": "from",
          "type": "address"
        },
        {
          "indexed": true,
          "internalType": "address",
          "name": "to",
          "type": "address"
        },
        {
          "indexed": true,
          "internalType": "uint256",
          "name": "tokenId",
          "type": "uint256"
        }
      ],
      "name": "Transfer",
      "type": "event"
    },
    {
      "inputs": [
        {
          "internalType": "address",
          "name": "",
          "type": "address"
        }
      ],
      "name": "_presaleClaimed",
      "outputs": [
        {
          "internalType": "uint256",
          "name": "",
          "type": "uint256"
        }
      ],
      "stateMutability": "view",
      "type": "function"
    },
    {
      "inputs": [
        {
          "internalType": "address",
          "name": "to",
          "type": "address"
        },
        {
          "internalType": "uint256",
          "name": "tokenId",
          "type": "uint256"
        }
      ],
      "name": "approve",
      "outputs": [],
      "stateMutability": "nonpayable",
      "type": "function"
    },
    {
      "inputs": [
        {
          "internalType": "address",
          "name": "owner",
          "type": "address"
        }
      ],
      "name": "balanceOf",
      "outputs": [
        {
          "internalType": "uint256",
          "name": "",
          "type": "uint256"
        }
      ],
      "stateMutability": "view",
      "type": "function"
    },
    {
      "inputs": [],
      "name": "baseExtension",
      "outputs": [
        {
          "internalType": "string",
          "name": "",
          "type": "string"
        }
      ],
      "stateMutability": "view",
      "type": "function"
    },
    {
      "inputs": [],
      "name": "baseURI",
      "outputs": [
        {
          "internalType": "string",
          "name": "",
          "type": "string"
        }
      ],
      "stateMutability": "view",
      "type": "function"
    },
    {
      "inputs": [
        {
          "internalType": "uint256",
          "name": "tokenId",
          "type": "uint256"
        }
      ],
      "name": "getApproved",
      "outputs": [
        {
          "internalType": "address",
          "name": "",
          "type": "address"
        }
      ],
      "stateMutability": "view",
      "type": "function"
    },
    {
      "inputs": [
        {
          "internalType": "address",
          "name": "owner",
          "type": "address"
        },
        {
          "internalType": "address",
          "name": "operator",
          "type": "address"
        }
      ],
      "name": "isApprovedForAll",
      "outputs": [
        {
          "internalType": "bool",
          "name": "",
          "type": "bool"
        }
      ],
      "stateMutability": "view",
      "type": "function"
    },
    {
      "inputs": [],
      "name": "maxSupply",
      "outputs": [
        {
          "internalType": "uint256",
          "name": "",
          "type": "uint256"
        }
      ],
      "stateMutability": "view",
      "type": "function"
    },
    {
      "inputs": [],
      "name": "name",
      "outputs": [
        {
          "internalType": "string",
          "name": "",
          "type": "string"
        }
      ],
      "stateMutability": "view",
      "type": "function"
    },
    {
      "inputs": [],
      "name": "notRevealedUri",
      "outputs": [
        {
          "internalType": "string",
          "name": "",
          "type": "string"
        }
      ],
      "stateMutability": "view",
      "type": "function"
    },
    {
      "inputs": [],
      "name": "owner",
      "outputs": [
        {
          "internalType": "address",
          "name": "",
          "type": "address"
        }
      ],
      "stateMutability": "view",
      "type": "function"
    },
    {
      "inputs": [
        {
          "internalType": "uint256",
          "name": "tokenId",
          "type": "uint256"
        }
      ],
      "name": "ownerOf",
      "outputs": [
        {
          "internalType": "address",
          "name": "",
          "type": "address"
        }
      ],
      "stateMutability": "view",
      "type": "function"
    },
    {
      "inputs": [],
      "name": "paused",
      "outputs": [
        {
          "internalType": "bool",
          "name": "",
          "type": "bool"
        }
      ],
      "stateMutability": "view",
      "type": "function"
    },
    {
      "inputs": [
        {
          "internalType": "uint256",
          "name": "index",
          "type": "uint256"
        }
      ],
      "name": "payee",
      "outputs": [
        {
          "internalType": "address",
          "name": "",
          "type": "address"
        }
      ],
      "stateMutability": "view",
      "type": "function"
    },
    {
      "inputs": [],
      "name": "preSaleLimit",
      "outputs": [
        {
          "internalType": "uint256",
          "name": "",
          "type": "uint256"
        }
      ],
      "stateMutability": "view",
      "type": "function"
    },
    {
      "inputs": [],
      "name": "presaleM",
      "outputs": [
        {
          "internalType": "bool",
          "name": "",
          "type": "bool"
        }
      ],
      "stateMutability": "view",
      "type": "function"
    },
    {
      "inputs": [
        {
          "internalType": "address",
          "name": "account",
          "type": "address"
        },
        {
          "internalType": "uint256",
          "name": "_amount",
          "type": "uint256"
        },
        {
          "internalType": "bytes32[]",
          "name": "_proof",
          "type": "bytes32[]"
        }
      ],
      "name": "presaleMint",
      "outputs": [],
      "stateMutability": "payable",
      "type": "function"
    },
    {
      "inputs": [],
      "name": "publicM",
      "outputs": [
        {
          "internalType": "bool",
          "name": "",
          "type": "bool"
        }
      ],
      "stateMutability": "view",
      "type": "function"
    },
    {
      "inputs": [],
      "name": "publicSaleLimit",
      "outputs": [
        {
          "internalType": "uint256",
          "name": "",
          "type": "uint256"
        }
      ],
      "stateMutability": "view",
      "type": "function"
    },
    {
      "inputs": [
        {
          "internalType": "uint256",
          "name": "_amount",
          "type": "uint256"
        }
      ],
      "name": "publicSaleMint",
      "outputs": [],
      "stateMutability": "payable",
      "type": "function"
    },
    {
      "inputs": [
        {
          "internalType": "address payable",
          "name": "account",
          "type": "address"
        }
      ],
      "name": "release",
      "outputs": [],
      "stateMutability": "nonpayable",
      "type": "function"
    },
    {
      "inputs": [
        {
          "internalType": "contract IERC20",
          "name": "token",
          "type": "address"
        },
        {
          "internalType": "address",
          "name": "account",
          "type": "address"
        }
      ],
      "name": "release",
      "outputs": [],
      "stateMutability": "nonpayable",
      "type": "function"
    },
    {
      "inputs": [
        {
          "internalType": "contract IERC20",
          "name": "token",
          "type": "address"
        },
        {
          "internalType": "address",
          "name": "account",
          "type": "address"
        }
      ],
      "name": "released",
      "outputs": [
        {
          "internalType": "uint256",
          "name": "",
          "type": "uint256"
        }
      ],
      "stateMutability": "view",
      "type": "function"
    },
    {
      "inputs": [
        {
          "internalType": "address",
          "name": "account",
          "type": "address"
        }
      ],
      "name": "released",
      "outputs": [
        {
          "internalType": "uint256",
          "name": "",
          "type": "uint256"
        }
      ],
      "stateMutability": "view",
      "type": "function"
    },
    {
      "inputs": [],
      "name": "renounceOwnership",
      "outputs": [],
      "stateMutability": "nonpayable",
      "type": "function"
    },
    {
      "inputs": [],
      "name": "reveal",
      "outputs": [],
      "stateMutability": "nonpayable",
      "type": "function"
    },
    {
      "inputs": [],
      "name": "revealed",
      "outputs": [
        {
          "internalType": "bool",
          "name": "",
          "type": "bool"
        }
      ],
      "stateMutability": "view",
      "type": "function"
    },
    {
      "inputs": [],
      "name": "root",
      "outputs": [
        {
          "internalType": "bytes32",
          "name": "",
          "type": "bytes32"
        }
      ],
      "stateMutability": "view",
      "type": "function"
    },
    {
      "inputs": [
        {
          "internalType": "address",
          "name": "from",
          "type": "address"
        },
        {
          "internalType": "address",
          "name": "to",
          "type": "address"
        },
        {
          "internalType": "uint256",
          "name": "tokenId",
          "type": "uint256"
        }
      ],
      "name": "safeTransferFrom",
      "outputs": [],
      "stateMutability": "nonpayable",
      "type": "function"
    },
    {
      "inputs": [
        {
          "internalType": "address",
          "name": "from",
          "type": "address"
        },
        {
          "internalType": "address",
          "name": "to",
          "type": "address"
        },
        {
          "internalType": "uint256",
          "name": "tokenId",
          "type": "uint256"
        },
        {
          "internalType": "bytes",
          "name": "_data",
          "type": "bytes"
        }
      ],
      "name": "safeTransferFrom",
      "outputs": [],
      "stateMutability": "nonpayable",
      "type": "function"
    },
    {
      "inputs": [
        {
          "internalType": "address",
          "name": "operator",
          "type": "address"
        },
        {
          "internalType": "bool",
          "name": "approved",
          "type": "bool"
        }
      ],
      "name": "setApprovalForAll",
      "outputs": [],
      "stateMutability": "nonpayable",
      "type": "function"
    },
    {
      "inputs": [
        {
          "internalType": "string",
          "name": "_newBaseExtension",
          "type": "string"
        }
      ],
      "name": "setBaseExtension",
      "outputs": [],
      "stateMutability": "nonpayable",
      "type": "function"
    },
    {
      "inputs": [
        {
          "internalType": "string",
          "name": "_tokenBaseURI",
          "type": "string"
        }
      ],
      "name": "setBaseURI",
      "outputs": [],
      "stateMutability": "nonpayable",
      "type": "function"
    },
    {
      "inputs": [
        {
          "internalType": "bytes32",
          "name": "merkleroot",
          "type": "bytes32"
        }
      ],
      "name": "setMerkleRoot",
      "outputs": [],
      "stateMutability": "nonpayable",
      "type": "function"
    },
    {
      "inputs": [
        {
          "internalType": "string",
          "name": "_notRevealedURI",
          "type": "string"
        }
      ],
      "name": "setNotRevealedURI",
      "outputs": [],
      "stateMutability": "nonpayable",
      "type": "function"
    },
    {
      "inputs": [
        {
          "internalType": "address",
          "name": "account",
          "type": "address"
        }
      ],
      "name": "shares",
      "outputs": [
        {
          "internalType": "uint256",
          "name": "",
          "type": "uint256"
        }
      ],
      "stateMutability": "view",
      "type": "function"
    },
    {
      "inputs": [
        {
          "internalType": "bytes4",
          "name": "interfaceId",
          "type": "bytes4"
        }
      ],
      "name": "supportsInterface",
      "outputs": [
        {
          "internalType": "bool",
          "name": "",
          "type": "bool"
        }
      ],
      "stateMutability": "view",
      "type": "function"
    },
    {
      "inputs": [],
      "name": "symbol",
      "outputs": [
        {
          "internalType": "string",
          "name": "",
          "type": "string"
        }
      ],
      "stateMutability": "view",
      "type": "function"
    },
    {
      "inputs": [],
      "name": "togglePause",
      "outputs": [],
      "stateMutability": "nonpayable",
      "type": "function"
    },
    {
      "inputs": [],
      "name": "togglePresale",
      "outputs": [],
      "stateMutability": "nonpayable",
      "type": "function"
    },
    {
      "inputs": [],
      "name": "togglePublicSale",
      "outputs": [],
      "stateMutability": "nonpayable",
      "type": "function"
    },
    {
      "inputs": [
        {
          "internalType": "uint256",
          "name": "tokenId",
          "type": "uint256"
        }
      ],
      "name": "tokenURI",
      "outputs": [
        {
          "internalType": "string",
          "name": "",
          "type": "string"
        }
      ],
      "stateMutability": "view",
      "type": "function"
    },
    {
      "inputs": [
        {
          "internalType": "contract IERC20",
          "name": "token",
          "type": "address"
        }
      ],
      "name": "totalReleased",
      "outputs": [
        {
          "internalType": "uint256",
          "name": "",
          "type": "uint256"
        }
      ],
      "stateMutability": "view",
      "type": "function"
    },
    {
      "inputs": [],
      "name": "totalReleased",
      "outputs": [
        {
          "internalType": "uint256",
          "name": "",
          "type": "uint256"
        }
      ],
      "stateMutability": "view",
      "type": "function"
    },
    {
      "inputs": [],
      "name": "totalShares",
      "outputs": [
        {
          "internalType": "uint256",
          "name": "",
          "type": "uint256"
        }
      ],
      "stateMutability": "view",
      "type": "function"
    },
    {
      "inputs": [],
      "name": "totalSupply",
      "outputs": [
        {
          "internalType": "uint256",
          "name": "",
          "type": "uint256"
        }
      ],
      "stateMutability": "view",
      "type": "function"
    },
    {
      "inputs": [
        {
          "internalType": "address",
          "name": "from",
          "type": "address"
        },
        {
          "internalType": "address",
          "name": "to",
          "type": "address"
        },
        {
          "internalType": "uint256",
          "name": "tokenId",
          "type": "uint256"
        }
      ],
      "name": "transferFrom",
      "outputs": [],
      "stateMutability": "nonpayable",
      "type": "function"
    },
    {
      "inputs": [
        {
          "internalType": "address",
          "name": "newOwner",
          "type": "address"
        }
      ],
      "name": "transferOwnership",
      "outputs": [],
      "stateMutability": "nonpayable",
      "type": "function"
    },
    {
      "inputs": [
        {
          "internalType": "address",
          "name": "",
          "type": "address"
        }
      ],
      "name": "walletMints",
      "outputs": [
        {
          "internalType": "uint256",
          "name": "",
          "type": "uint256"
        }
      ],
      "stateMutability": "view",
      "type": "function"
    },
    {
      "stateMutability": "payable",
      "type": "receive"
    }
  ],
  "bytecode": "0x600a60115560e0604052603660808181529062003ad960a03980516200002e916012916020909101906200065d565b5060408051808201909152600580825264173539b7b760d91b60209092019182526200005d916014916200065d565b506015805463ffffffff1916620101001790556002601655662386f26fc100006018556040805160208101909152606481526200009f90601a906001620006ec565b506040805160208101909152734263d6f7dd08a8f7b85150725349852d401ca3f18152620000d290601b9060016200072f565b50348015620000e057600080fd5b5060405162003b0f38038062003b0f8339810160408190526200010391620007d1565b601b8054806020026020016040519081016040528092919081815260200182805480156200015b57602002820191906000526020600020905b81546001600160a01b031681526001909101906020018083116200013c575b5050505050601a805480602002602001604051908101604052809291908181526020018280548015620001ae57602002820191906000526020600020905b81548152602001906001019080831162000199575b5050604080518082018252600c81526b2932b9b4b634b2b73a2432b960a11b6020808301918252835180850190945260038452622422a960e91b908401528151919550919350620002049250600091906200065d565b5080516200021a9060019060208401906200065d565b5050506200023762000231620003a460201b60201c565b620003a8565b60016007558051825114620002ae5760405162461bcd60e51b815260206004820152603260248201527f5061796d656e7453706c69747465723a2070617965657320616e6420736861726044820152710cae640d8cadccee8d040dad2e6dac2e8c6d60731b60648201526084015b60405180910390fd5b6000825111620003015760405162461bcd60e51b815260206004820152601a60248201527f5061796d656e7453706c69747465723a206e6f207061796565730000000000006044820152606401620002a5565b60005b82518110156200036d5762000358838281518110620003275762000327620008cc565b6020026020010151838381518110620003445762000344620008cc565b6020026020010151620003fa60201b60201c565b806200036481620008f8565b91505062000304565b505050600f829055601080546001600160a01b0319166001600160a01b0383161790556200039b83620005e8565b5050506200096e565b3390565b600680546001600160a01b038381166001600160a01b0319831681179093556040519116919082907f8be0079c531659141344cd1fd0a4f28419497f9722a3daafe3b4186f6b6457e090600090a35050565b6001600160a01b038216620004675760405162461bcd60e51b815260206004820152602c60248201527f5061796d656e7453706c69747465723a206163636f756e74206973207468652060448201526b7a65726f206164647265737360a01b6064820152608401620002a5565b60008111620004b95760405162461bcd60e51b815260206004820152601d60248201527f5061796d656e7453706c69747465723a207368617265732061726520300000006044820152606401620002a5565b6001600160a01b0382166000908152600a602052604090205415620005355760405162461bcd60e51b815260206004820152602b60248201527f5061796d656e7453706c69747465723a206163636f756e7420616c726561647960448201526a206861732073686172657360a81b6064820152608401620002a5565b600c8054600181019091557fdf6966c971051c3d54ec59162606531493a51404a002842f56009d7e5cf4a8c70180546001600160a01b0319166001600160a01b0384169081179091556000908152600a602052604090208190556008546200059f90829062000916565b600855604080516001600160a01b0384168152602081018390527f40c340f65e17194d14ddddb073d3c9f888e3cb52b5aae0c6c7706b4fbc905fac910160405180910390a15050565b6006546001600160a01b03163314620006445760405162461bcd60e51b815260206004820181905260248201527f4f776e61626c653a2063616c6c6572206973206e6f7420746865206f776e65726044820152606401620002a5565b8051620006599060129060208401906200065d565b5050565b8280546200066b9062000931565b90600052602060002090601f0160209004810192826200068f5760008555620006da565b82601f10620006aa57805160ff1916838001178555620006da565b82800160010185558215620006da579182015b82811115620006da578251825591602001919060010190620006bd565b50620006e892915062000787565b5090565b828054828255906000526020600020908101928215620006da579160200282015b82811115620006da578251829060ff169055916020019190600101906200070d565b828054828255906000526020600020908101928215620006da579160200282015b82811115620006da57825182546001600160a01b0319166001600160a01b0390911617825560209092019160019091019062000750565b5b80821115620006e8576000815560010162000788565b634e487b7160e01b600052604160045260246000fd5b80516001600160a01b0381168114620007cc57600080fd5b919050565b600080600060608486031215620007e757600080fd5b83516001600160401b0380821115620007ff57600080fd5b818601915086601f8301126200081457600080fd5b8151818111156200082957620008296200079e565b604051601f8201601f19908116603f011681019083821181831017156200085457620008546200079e565b816040528281526020935089848487010111156200087157600080fd5b600091505b8282101562000895578482018401518183018501529083019062000876565b82821115620008a75760008484830101525b8097505050508086015193505050620008c360408501620007b4565b90509250925092565b634e487b7160e01b600052603260045260246000fd5b634e487b7160e01b600052601160045260246000fd5b60006000198214156200090f576200090f620008e2565b5060010190565b600082198211156200092c576200092c620008e2565b500190565b600181811c908216806200094657607f821691505b602082108114156200096857634e487b7160e01b600052602260045260246000fd5b50919050565b61315b806200097e6000396000f3fe6080604052600436106102b25760003560e01c80638cc4de1911610175578063c6682862116100dc578063e222c7f911610095578063ebf0c7171161006f578063ebf0c7171461088e578063f0293fd3146108a4578063f2c4ce1e146108d1578063f2fde38b146108f157600080fd5b8063e222c7f914610844578063e33b7de314610859578063e985e9c51461086e57600080fd5b8063c66828621461076d578063c87b56dd14610782578063ce7c2ac2146107a2578063d5abeb01146107d8578063d79779b2146107ee578063da3ef23f1461082457600080fd5b8063a22cb4651161012e578063a22cb465146106cf578063a45063c0146106ef578063a475b5dd14610710578063b3ab66b014610725578063b88d4fde14610738578063c4ae31681461075857600080fd5b80638cc4de19146106115780638da5cb5b1461063e578063909d68771461065c578063954dc3e31461067157806395d89b41146106845780639852595c1461069957600080fd5b806342842e0e116102195780636c0360eb116101d25780636c0360eb146105725780636e3de87c1461058757806370a082311461059c578063715018a6146105bc5780637cb64759146105d15780638b83209b146105f157600080fd5b806342842e0e146104b957806348b75044146104d957806351830227146104f957806355f804b3146105185780635c975abb146105385780636352211e1461055257600080fd5b806318160ddd1161026b57806318160ddd146103e6578063191655871461040957806323b872dd1461042957806334393743146104495780633a98ef391461045e578063406072a91461047357600080fd5b806301ffc9a71461030057806306fdde0314610335578063081812fc14610357578063081c8c441461038f578063095ea7b3146103a45780631798d58b146103c657600080fd5b366102fb577f6ef95f06320e7a25a04a175ca677b7052bdd97131872c2192525a629f51be77033604080516001600160a01b0390921682523460208301520160405180910390a1005b600080fd5b34801561030c57600080fd5b5061032061031b36600461288d565b610911565b60405190151581526020015b60405180910390f35b34801561034157600080fd5b5061034a610963565b60405161032c9190612902565b34801561036357600080fd5b50610377610372366004612915565b6109f5565b6040516001600160a01b03909116815260200161032c565b34801561039b57600080fd5b5061034a610a8f565b3480156103b057600080fd5b506103c46103bf366004612943565b610b1d565b005b3480156103d257600080fd5b506015546103209062010000900460ff1681565b3480156103f257600080fd5b506103fb610c33565b60405190815260200161032c565b34801561041557600080fd5b506103c461042436600461296f565b610c43565b34801561043557600080fd5b506103c461044436600461298c565b610d71565b34801561045557600080fd5b506103c4610da2565b34801561046a57600080fd5b506008546103fb565b34801561047f57600080fd5b506103fb61048e3660046129cd565b6001600160a01b039182166000908152600e6020908152604080832093909416825291909152205490565b3480156104c557600080fd5b506103c46104d436600461298c565b610deb565b3480156104e557600080fd5b506103c46104f43660046129cd565b610e06565b34801561050557600080fd5b5060155461032090610100900460ff1681565b34801561052457600080fd5b506103c4610533366004612a92565b610fee565b34801561054457600080fd5b506015546103209060ff1681565b34801561055e57600080fd5b5061037761056d366004612915565b61102f565b34801561057e57600080fd5b5061034a6110a6565b34801561059357600080fd5b506103fb600181565b3480156105a857600080fd5b506103fb6105b736600461296f565b6110b3565b3480156105c857600080fd5b506103c461113a565b3480156105dd57600080fd5b506103c46105ec366004612915565b611170565b3480156105fd57600080fd5b5061037761060c366004612915565b61119f565b34801561061d57600080fd5b506103fb61062c36600461296f565b60176020526000908152604090205481565b34801561064a57600080fd5b506006546001600160a01b0316610377565b34801561066857600080fd5b506103fb600281565b6103c461067f366004612adb565b6111cf565b34801561069057600080fd5b5061034a6114ac565b3480156106a557600080fd5b506103fb6106b436600461296f565b6001600160a01b03166000908152600b602052604090205490565b3480156106db57600080fd5b506103c46106ea366004612b75565b6114bb565b3480156106fb57600080fd5b50601554610320906301000000900460ff1681565b34801561071c57600080fd5b506103c46114c6565b6103c4610733366004612915565b611501565b34801561074457600080fd5b506103c4610753366004612ba3565b6116d3565b34801561076457600080fd5b506103c461170b565b34801561077957600080fd5b5061034a611749565b34801561078e57600080fd5b5061034a61079d366004612915565b611756565b3480156107ae57600080fd5b506103fb6107bd36600461296f565b6001600160a01b03166000908152600a602052604090205490565b3480156107e457600080fd5b506103fb60115481565b3480156107fa57600080fd5b506103fb61080936600461296f565b6001600160a01b03166000908152600d602052604090205490565b34801561083057600080fd5b506103c461083f366004612a92565b6118d5565b34801561085057600080fd5b506103c4611912565b34801561086557600080fd5b506009546103fb565b34801561087a57600080fd5b506103206108893660046129cd565b61195d565b34801561089a57600080fd5b506103fb600f5481565b3480156108b057600080fd5b506103fb6108bf36600461296f565b601c6020526000908152604090205481565b3480156108dd57600080fd5b506103c46108ec366004612a92565b611a2d565b3480156108fd57600080fd5b506103c461090c36600461296f565b611a6a565b60006001600160e01b031982166380ac58cd60e01b148061094257506001600160e01b03198216635b5e139f60e01b145b8061095d57506301ffc9a760e01b6001600160e01b03198316145b92915050565b60606000805461097290612c23565b80601f016020809104026020016040519081016040528092919081815260200182805461099e90612c23565b80156109eb5780601f106109c0576101008083540402835291602001916109eb565b820191906000526020600020905b8154815290600101906020018083116109ce57829003601f168201915b5050505050905090565b6000818152600260205260408120546001600160a01b0316610a735760405162461bcd60e51b815260206004820152602c60248201527f4552433732313a20617070726f76656420717565727920666f72206e6f6e657860448201526b34b9ba32b73a103a37b5b2b760a11b60648201526084015b60405180910390fd5b506000908152600460205260409020546001600160a01b031690565b60138054610a9c90612c23565b80601f0160208091040260200160405190810160405280929190818152602001828054610ac890612c23565b8015610b155780601f10610aea57610100808354040283529160200191610b15565b820191906000526020600020905b815481529060010190602001808311610af857829003601f168201915b505050505081565b6000610b288261102f565b9050806001600160a01b0316836001600160a01b03161415610b965760405162461bcd60e51b815260206004820152602160248201527f4552433732313a20617070726f76616c20746f2063757272656e74206f776e656044820152603960f91b6064820152608401610a6a565b336001600160a01b0382161480610bb25750610bb2813361195d565b610c245760405162461bcd60e51b815260206004820152603860248201527f4552433732313a20617070726f76652063616c6c6572206973206e6f74206f7760448201527f6e6572206e6f7220617070726f76656420666f7220616c6c00000000000000006064820152608401610a6a565b610c2e8383611b05565b505050565b6000610c3e60195490565b905090565b6001600160a01b0381166000908152600a6020526040902054610c785760405162461bcd60e51b8152600401610a6a90612c5e565b6000610c8360095490565b610c8d9047612cba565b90506000610cba8383610cb5866001600160a01b03166000908152600b602052604090205490565b611b73565b905080610cd95760405162461bcd60e51b8152600401610a6a90612cd2565b6001600160a01b0383166000908152600b602052604081208054839290610d01908490612cba565b925050819055508060096000828254610d1a9190612cba565b90915550610d2a90508382611bb1565b604080516001600160a01b0385168152602081018390527fdf20fd1e76bc69d672e4814fafb2c449bba3a5369d8359adf9e05e6fde87b056910160405180910390a1505050565b610d7b3382611cca565b610d975760405162461bcd60e51b8152600401610a6a90612d1d565b610c2e838383611d99565b6006546001600160a01b03163314610dcc5760405162461bcd60e51b8152600401610a6a90612d6e565b6015805462ff0000198116620100009182900460ff1615909102179055565b610c2e838383604051806020016040528060008152506116d3565b6001600160a01b0381166000908152600a6020526040902054610e3b5760405162461bcd60e51b8152600401610a6a90612c5e565b6001600160a01b0382166000908152600d60205260408120546040516370a0823160e01b81523060048201526001600160a01b038516906370a082319060240160206040518083038186803b158015610e9357600080fd5b505afa158015610ea7573d6000803e3d6000fd5b505050506040513d601f19601f82011682018060405250810190610ecb9190612da3565b610ed59190612cba565b90506000610f0e8383610cb587876001600160a01b039182166000908152600e6020908152604080832093909416825291909152205490565b905080610f2d5760405162461bcd60e51b8152600401610a6a90612cd2565b6001600160a01b038085166000908152600e6020908152604080832093871683529290529081208054839290610f64908490612cba565b90915550506001600160a01b0384166000908152600d602052604081208054839290610f91908490612cba565b90915550610fa29050848483611f35565b604080516001600160a01b038581168252602082018490528616917f3be5b7a71e84ed12875d241991c70855ac5817d847039e17a9d895c1ceb0f18a910160405180910390a250505050565b6006546001600160a01b031633146110185760405162461bcd60e51b8152600401610a6a90612d6e565b805161102b9060129060208401906127de565b5050565b6000818152600260205260408120546001600160a01b03168061095d5760405162461bcd60e51b815260206004820152602960248201527f4552433732313a206f776e657220717565727920666f72206e6f6e657869737460448201526832b73a103a37b5b2b760b91b6064820152608401610a6a565b60128054610a9c90612c23565b60006001600160a01b03821661111e5760405162461bcd60e51b815260206004820152602a60248201527f4552433732313a2062616c616e636520717565727920666f7220746865207a65604482015269726f206164647265737360b01b6064820152608401610a6a565b506001600160a01b031660009081526003602052604090205490565b6006546001600160a01b031633146111645760405162461bcd60e51b8152600401610a6a90612d6e565b61116e6000611f87565b565b6006546001600160a01b0316331461119a5760405162461bcd60e51b8152600401610a6a90612d6e565b600f55565b6000600c82815481106111b4576111b4612dbc565b6000918252602090912001546001600160a01b031692915050565b818161124682828080602002602001604051908101604052809392919081815260200183836020028082843760009201919091525050600f546040516bffffffffffffffffffffffff193360601b166020820152909250603401905060405160208183030381529060405280519060200120611fd9565b15156001146112675760405162461bcd60e51b8152600401610a6a90612dd2565b3332146112865760405162461bcd60e51b8152600401610a6a90612dd2565b336001600160a01b038716146112de5760405162461bcd60e51b815260206004820152601a60248201527f526573696c69656e74204865723a204e6f7420616c6c6f7765640000000000006044820152606401610a6a565b60155462010000900460ff166113365760405162461bcd60e51b815260206004820152601d60248201527f526573696c69656e74204865723a2050726573616c65206973204f46460000006044820152606401610a6a565b60155460ff16156113595760405162461bcd60e51b8152600401610a6a90612dfe565b60165485111561137b5760405162461bcd60e51b8152600401610a6a90612e3f565b60165433600090815260176020526040902054611399908790612cba565b11156113b75760405162461bcd60e51b8152600401610a6a90612e3f565b60006113c260195490565b6011549091506113d28783612cba565b111561142b5760405162461bcd60e51b815260206004820152602260248201527f526573696c69656e74204865723a206d617820737570706c7920657863656564604482015261195960f21b6064820152608401610a6a565b348660185461143a9190612e8b565b11156114585760405162461bcd60e51b8152600401610a6a90612eaa565b3360009081526017602052604081208054889290611477908490612cba565b90915550600090505b868110156114a257611490611fef565b8061149a81612eef565b915050611480565b5050505050505050565b60606001805461097290612c23565b61102b338383612074565b6006546001600160a01b031633146114f05760405162461bcd60e51b8152600401610a6a90612d6e565b6015805461ff001916610100179055565b3332146115205760405162461bcd60e51b8152600401610a6a90612dd2565b6015546301000000900460ff166115795760405162461bcd60e51b815260206004820181905260248201527f526573696c69656e74204865723a205075626c696353616c65206973204f46466044820152606401610a6a565b60155460ff161561159c5760405162461bcd60e51b8152600401610a6a90612dfe565b600081116115ec5760405162461bcd60e51b815260206004820152601a60248201527f526573696c69656e74204865723a207a65726f20616d6f756e740000000000006044820152606401610a6a565b600181111561160d5760405162461bcd60e51b8152600401610a6a90612e3f565b600061161860195490565b6011549091506116288383612cba565b11156116815760405162461bcd60e51b815260206004820152602260248201527f526573696c69656e74204865723a204d617820737570706c7920657863656564604482015261195960f21b6064820152608401610a6a565b34826018546116909190612e8b565b11156116ae5760405162461bcd60e51b8152600401610a6a90612eaa565b60005b82811015610c2e576116c1611fef565b806116cb81612eef565b9150506116b1565b6116dd3383611cca565b6116f95760405162461bcd60e51b8152600401610a6a90612d1d565b61170584848484612143565b50505050565b6006546001600160a01b031633146117355760405162461bcd60e51b8152600401610a6a90612d6e565b6015805460ff19811660ff90911615179055565b60148054610a9c90612c23565b6000818152600260205260409020546060906001600160a01b03166117d55760405162461bcd60e51b815260206004820152602f60248201527f4552433732314d657461646174613a2055524920717565727920666f72206e6f60448201526e3732bc34b9ba32b73a103a37b5b2b760891b6064820152608401610a6a565b601554610100900460ff1661187657601380546117f190612c23565b80601f016020809104026020016040519081016040528092919081815260200182805461181d90612c23565b801561186a5780601f1061183f5761010080835404028352916020019161186a565b820191906000526020600020905b81548152906001019060200180831161184d57829003601f168201915b50505050509050919050565b6000611880612176565b905060008151116118a057604051806020016040528060008152506118ce565b806118aa84612185565b60146040516020016118be93929190612f0a565b6040516020818303038152906040525b9392505050565b6006546001600160a01b031633146118ff5760405162461bcd60e51b8152600401610a6a90612d6e565b805161102b9060149060208401906127de565b6006546001600160a01b0316331461193c5760405162461bcd60e51b8152600401610a6a90612d6e565b6015805463ff00000019811663010000009182900460ff1615909102179055565b60105460405163c455279160e01b81526001600160a01b03848116600483015260009281169190841690829063c45527919060240160206040518083038186803b1580156119aa57600080fd5b505afa1580156119be573d6000803e3d6000fd5b505050506040513d601f19601f820116820180604052508101906119e29190612fce565b6001600160a01b031614156119fb57600191505061095d565b6001600160a01b0380851660009081526005602090815260408083209387168352929052205460ff165b949350505050565b6006546001600160a01b03163314611a575760405162461bcd60e51b8152600401610a6a90612d6e565b805161102b9060139060208401906127de565b6006546001600160a01b03163314611a945760405162461bcd60e51b8152600401610a6a90612d6e565b6001600160a01b038116611af95760405162461bcd60e51b815260206004820152602660248201527f4f776e61626c653a206e6577206f776e657220697320746865207a65726f206160448201526564647265737360d01b6064820152608401610a6a565b611b0281611f87565b50565b600081815260046020526040902080546001600160a01b0319166001600160a01b0384169081179091558190611b3a8261102f565b6001600160a01b03167f8c5be1e5ebec7d5bd14f71427d1e84f3dd0314c0f7b2291e5b200ac8c7c3b92560405160405180910390a45050565b6008546001600160a01b0384166000908152600a602052604081205490918391611b9d9086612e8b565b611ba79190613001565b611a259190613015565b80471015611c015760405162461bcd60e51b815260206004820152601d60248201527f416464726573733a20696e73756666696369656e742062616c616e63650000006044820152606401610a6a565b6000826001600160a01b03168260405160006040518083038185875af1925050503d8060008114611c4e576040519150601f19603f3d011682016040523d82523d6000602084013e611c53565b606091505b5050905080610c2e5760405162461bcd60e51b815260206004820152603a60248201527f416464726573733a20756e61626c6520746f2073656e642076616c75652c207260448201527f6563697069656e74206d617920686176652072657665727465640000000000006064820152608401610a6a565b6000818152600260205260408120546001600160a01b0316611d435760405162461bcd60e51b815260206004820152602c60248201527f4552433732313a206f70657261746f7220717565727920666f72206e6f6e657860448201526b34b9ba32b73a103a37b5b2b760a11b6064820152608401610a6a565b6000611d4e8361102f565b9050806001600160a01b0316846001600160a01b03161480611d895750836001600160a01b0316611d7e846109f5565b6001600160a01b0316145b80611a255750611a25818561195d565b826001600160a01b0316611dac8261102f565b6001600160a01b031614611e105760405162461bcd60e51b815260206004820152602560248201527f4552433732313a207472616e736665722066726f6d20696e636f72726563742060448201526437bbb732b960d91b6064820152608401610a6a565b6001600160a01b038216611e725760405162461bcd60e51b8152602060048201526024808201527f4552433732313a207472616e7366657220746f20746865207a65726f206164646044820152637265737360e01b6064820152608401610a6a565b611e7d600082611b05565b6001600160a01b0383166000908152600360205260408120805460019290611ea6908490613015565b90915550506001600160a01b0382166000908152600360205260408120805460019290611ed4908490612cba565b909155505060008181526002602052604080822080546001600160a01b0319166001600160a01b0386811691821790925591518493918716917fddf252ad1be2c89b69c2b068fc378daa952ba7f163c4a11628f55a4df523b3ef91a4505050565b604080516001600160a01b038416602482015260448082018490528251808303909101815260649091019091526020810180516001600160e01b031663a9059cbb60e01b179052610c2e908490612283565b600680546001600160a01b038381166001600160a01b0319831681179093556040519116919082907f8be0079c531659141344cd1fd0a4f28419497f9722a3daafe3b4186f6b6457e090600090a35050565b600082611fe68584612355565b14949350505050565b600260075414156120425760405162461bcd60e51b815260206004820152601f60248201527f5265656e7472616e637947756172643a207265656e7472616e742063616c6c006044820152606401610a6a565b6002600755612055601980546001019055565b600061206060195490565b905061206c33826123c9565b506001600755565b816001600160a01b0316836001600160a01b031614156120d65760405162461bcd60e51b815260206004820152601960248201527f4552433732313a20617070726f766520746f2063616c6c6572000000000000006044820152606401610a6a565b6001600160a01b03838116600081815260056020908152604080832094871680845294825291829020805460ff191686151590811790915591519182527f17307eab39ab6107e8899845ad3d59bd9653f200f220920489ca2b5937696c31910160405180910390a3505050565b61214e848484611d99565b61215a848484846123e3565b6117055760405162461bcd60e51b8152600401610a6a9061302c565b60606012805461097290612c23565b6060816121a95750506040805180820190915260018152600360fc1b602082015290565b8160005b81156121d357806121bd81612eef565b91506121cc9050600a83613001565b91506121ad565b60008167ffffffffffffffff8111156121ee576121ee612a06565b6040519080825280601f01601f191660200182016040528015612218576020820181803683370190505b5090505b8415611a255761222d600183613015565b915061223a600a8661307e565b612245906030612cba565b60f81b81838151811061225a5761225a612dbc565b60200101906001600160f81b031916908160001a90535061227c600a86613001565b945061221c565b60006122d8826040518060400160405280602081526020017f5361666545524332303a206c6f772d6c6576656c2063616c6c206661696c6564815250856001600160a01b03166124f09092919063ffffffff16565b805190915015610c2e57808060200190518101906122f69190613092565b610c2e5760405162461bcd60e51b815260206004820152602a60248201527f5361666545524332303a204552433230206f7065726174696f6e20646964206e6044820152691bdd081cdd58d8d9595960b21b6064820152608401610a6a565b600081815b84518110156123c157600085828151811061237757612377612dbc565b6020026020010151905080831161239d57600083815260208290526040902092506123ae565b600081815260208490526040902092505b50806123b981612eef565b91505061235a565b509392505050565b61102b8282604051806020016040528060008152506124ff565b60006001600160a01b0384163b156124e557604051630a85bd0160e11b81526001600160a01b0385169063150b7a02906124279033908990889088906004016130af565b602060405180830381600087803b15801561244157600080fd5b505af1925050508015612471575060408051601f3d908101601f1916820190925261246e918101906130ec565b60015b6124cb573d80801561249f576040519150601f19603f3d011682016040523d82523d6000602084013e6124a4565b606091505b5080516124c35760405162461bcd60e51b8152600401610a6a9061302c565b805181602001fd5b6001600160e01b031916630a85bd0160e11b149050611a25565b506001949350505050565b6060611a258484600085612532565b6125098383612663565b61251660008484846123e3565b610c2e5760405162461bcd60e51b8152600401610a6a9061302c565b6060824710156125935760405162461bcd60e51b815260206004820152602660248201527f416464726573733a20696e73756666696369656e742062616c616e636520666f6044820152651c8818d85b1b60d21b6064820152608401610a6a565b6001600160a01b0385163b6125ea5760405162461bcd60e51b815260206004820152601d60248201527f416464726573733a2063616c6c20746f206e6f6e2d636f6e74726163740000006044820152606401610a6a565b600080866001600160a01b031685876040516126069190613109565b60006040518083038185875af1925050503d8060008114612643576040519150601f19603f3d011682016040523d82523d6000602084013e612648565b606091505b50915091506126588282866127a5565b979650505050505050565b6001600160a01b0382166126b95760405162461bcd60e51b815260206004820181905260248201527f4552433732313a206d696e7420746f20746865207a65726f20616464726573736044820152606401610a6a565b6000818152600260205260409020546001600160a01b03161561271e5760405162461bcd60e51b815260206004820152601c60248201527f4552433732313a20746f6b656e20616c7265616479206d696e746564000000006044820152606401610a6a565b6001600160a01b0382166000908152600360205260408120805460019290612747908490612cba565b909155505060008181526002602052604080822080546001600160a01b0319166001600160a01b03861690811790915590518392907fddf252ad1be2c89b69c2b068fc378daa952ba7f163c4a11628f55a4df523b3ef908290a45050565b606083156127b45750816118ce565b8251156127c45782518084602001fd5b8160405162461bcd60e51b8152600401610a6a9190612902565b8280546127ea90612c23565b90600052602060002090601f01602090048101928261280c5760008555612852565b82601f1061282557805160ff1916838001178555612852565b82800160010185558215612852579182015b82811115612852578251825591602001919060010190612837565b5061285e929150612862565b5090565b5b8082111561285e5760008155600101612863565b6001600160e01b031981168114611b0257600080fd5b60006020828403121561289f57600080fd5b81356118ce81612877565b60005b838110156128c55781810151838201526020016128ad565b838111156117055750506000910152565b600081518084526128ee8160208601602086016128aa565b601f01601f19169290920160200192915050565b6020815260006118ce60208301846128d6565b60006020828403121561292757600080fd5b5035919050565b6001600160a01b0381168114611b0257600080fd5b6000806040838503121561295657600080fd5b82356129618161292e565b946020939093013593505050565b60006020828403121561298157600080fd5b81356118ce8161292e565b6000806000606084860312156129a157600080fd5b83356129ac8161292e565b925060208401356129bc8161292e565b929592945050506040919091013590565b600080604083850312156129e057600080fd5b82356129eb8161292e565b915060208301356129fb8161292e565b809150509250929050565b634e487b7160e01b600052604160045260246000fd5b600067ffffffffffffffff80841115612a3757612a37612a06565b604051601f8501601f19908116603f01168101908282118183101715612a5f57612a5f612a06565b81604052809350858152868686011115612a7857600080fd5b858560208301376000602087830101525050509392505050565b600060208284031215612aa457600080fd5b813567ffffffffffffffff811115612abb57600080fd5b8201601f81018413612acc57600080fd5b611a2584823560208401612a1c565b60008060008060608587031215612af157600080fd5b8435612afc8161292e565b935060208501359250604085013567ffffffffffffffff80821115612b2057600080fd5b818701915087601f830112612b3457600080fd5b813581811115612b4357600080fd5b8860208260051b8501011115612b5857600080fd5b95989497505060200194505050565b8015158114611b0257600080fd5b60008060408385031215612b8857600080fd5b8235612b938161292e565b915060208301356129fb81612b67565b60008060008060808587031215612bb957600080fd5b8435612bc48161292e565b93506020850135612bd48161292e565b925060408501359150606085013567ffffffffffffffff811115612bf757600080fd5b8501601f81018713612c0857600080fd5b612c1787823560208401612a1c565b91505092959194509250565b600181811c90821680612c3757607f821691505b60208210811415612c5857634e487b7160e01b600052602260045260246000fd5b50919050565b60208082526026908201527f5061796d656e7453706c69747465723a206163636f756e7420686173206e6f2060408201526573686172657360d01b606082015260800190565b634e487b7160e01b600052601160045260246000fd5b60008219821115612ccd57612ccd612ca4565b500190565b6020808252602b908201527f5061796d656e7453706c69747465723a206163636f756e74206973206e6f742060408201526a191d59481c185e5b595b9d60aa1b606082015260800190565b60208082526031908201527f4552433732313a207472616e736665722063616c6c6572206973206e6f74206f6040820152701ddb995c881b9bdc88185c1c1c9bdd9959607a1b606082015260800190565b6020808252818101527f4f776e61626c653a2063616c6c6572206973206e6f7420746865206f776e6572604082015260600190565b600060208284031215612db557600080fd5b5051919050565b634e487b7160e01b600052603260045260246000fd5b6020808252601290820152712737ba1030b63637bbb2b21037b934b3b4b760711b604082015260600190565b60208082526021908201527f526573696c69656e74204865723a20436f6e74726163742069732070617573656040820152601960fa1b606082015260800190565b6020808252602c908201527f526573696c69656e74204865723a20596f752063616e2774206d696e7420736f60408201526b206d75636820746f6b656e7360a01b606082015260800190565b6000816000190483118215151615612ea557612ea5612ca4565b500290565b60208082526025908201527f526573696c69656e74204865723a204e6f7420656e6f75676820657468657273604082015264081cd95b9d60da1b606082015260800190565b6000600019821415612f0357612f03612ca4565b5060010190565b600084516020612f1d8285838a016128aa565b855191840191612f308184848a016128aa565b8554920191600090600181811c9080831680612f4d57607f831692505b858310811415612f6b57634e487b7160e01b85526022600452602485fd5b808015612f7f5760018114612f9057612fbd565b60ff19851688528388019550612fbd565b60008b81526020902060005b85811015612fb55781548a820152908401908801612f9c565b505083880195505b50939b9a5050505050505050505050565b600060208284031215612fe057600080fd5b81516118ce8161292e565b634e487b7160e01b600052601260045260246000fd5b60008261301057613010612feb565b500490565b60008282101561302757613027612ca4565b500390565b60208082526032908201527f4552433732313a207472616e7366657220746f206e6f6e20455243373231526560408201527131b2b4bb32b91034b6b83632b6b2b73a32b960711b606082015260800190565b60008261308d5761308d612feb565b500690565b6000602082840312156130a457600080fd5b81516118ce81612b67565b6001600160a01b03858116825284166020820152604081018390526080606082018190526000906130e2908301846128d6565b9695505050505050565b6000602082840312156130fe57600080fd5b81516118ce81612877565b6000825161311b8184602087016128aa565b919091019291505056fea26469706673582212207ce788b77af1c0eb180ba44c94fe2f77b4be9a02c17ca2f55f67c062c40208c464736f6c63430008090033697066733a2f2f516d564263506b664244316b3873703467536337326d5770567a437a7a577541337a3845344e4a3339524c6331532f",
  "linkReferences": {},
  "deployedLinkReferences": {}
}