{
  "_format": "hh-sol-artifact-1",
  "contractName": "ResilientHer",
  "sourceName": "contracts/ResilientHer.sol",
  "abi": [
    {
      "inputs": [
        {
          "internalType": "string",
          "name": "uri",
          "type": "string"
        },
        {
          "internalType": "bytes32",
          "name": "merkleroot",
          "type": "bytes32"
        },
        {
          "internalType": "address",
          "name": "_proxyRegistryAddress",
          "type": "address"
        }
      ],
      "stateMutability": "nonpayable",
      "type": "constructor"
    },
    {
      "anonymous": false,
      "inputs": [
        {
          "indexed": true,
          "internalType": "address",
          "name": "owner",
          "type": "address"
        },
        {
          "indexed": true,
          "internalType": "address",
          "name": "approved",
          "type": "address"
        },
        {
          "indexed": true,
          "internalType": "uint256",
          "name": "tokenId",
          "type": "uint256"
        }
      ],
      "name": "Approval",
      "type": "event"
    },
    {
      "anonymous": false,
      "inputs": [
        {
          "indexed": true,
          "internalType": "address",
          "name": "owner",
          "type": "address"
        },
        {
          "indexed": true,
          "internalType": "address",
          "name": "operator",
          "type": "address"
        },
        {
          "indexed": false,
          "internalType": "bool",
          "name": "approved",
          "type": "bool"
        }
      ],
      "name": "ApprovalForAll",
      "type": "event"
    },
    {
      "anonymous": false,
      "inputs": [
        {
          "indexed": true,
          "internalType": "contract IERC20",
          "name": "token",
          "type": "address"
        },
        {
          "indexed": false,
          "internalType": "address",
          "name": "to",
          "type": "address"
        },
        {
          "indexed": false,
          "internalType": "uint256",
          "name": "amount",
          "type": "uint256"
        }
      ],
      "name": "ERC20PaymentReleased",
      "type": "event"
    },
    {
      "anonymous": false,
      "inputs": [
        {
          "indexed": true,
          "internalType": "address",
          "name": "previousOwner",
          "type": "address"
        },
        {
          "indexed": true,
          "internalType": "address",
          "name": "newOwner",
          "type": "address"
        }
      ],
      "name": "OwnershipTransferred",
      "type": "event"
    },
    {
      "anonymous": false,
      "inputs": [
        {
          "indexed": false,
          "internalType": "address",
          "name": "account",
          "type": "address"
        },
        {
          "indexed": false,
          "internalType": "uint256",
          "name": "shares",
          "type": "uint256"
        }
      ],
      "name": "PayeeAdded",
      "type": "event"
    },
    {
      "anonymous": false,
      "inputs": [
        {
          "indexed": false,
          "internalType": "address",
          "name": "from",
          "type": "address"
        },
        {
          "indexed": false,
          "internalType": "uint256",
          "name": "amount",
          "type": "uint256"
        }
      ],
      "name": "PaymentReceived",
      "type": "event"
    },
    {
      "anonymous": false,
      "inputs": [
        {
          "indexed": false,
          "internalType": "address",
          "name": "to",
          "type": "address"
        },
        {
          "indexed": false,
          "internalType": "uint256",
          "name": "amount",
          "type": "uint256"
        }
      ],
      "name": "PaymentReleased",
      "type": "event"
    },
    {
      "anonymous": false,
      "inputs": [
        {
          "indexed": true,
          "internalType": "address",
          "name": "from",
          "type": "address"
        },
        {
          "indexed": true,
          "internalType": "address",
          "name": "to",
          "type": "address"
        },
        {
          "indexed": true,
          "internalType": "uint256",
          "name": "tokenId",
          "type": "uint256"
        }
      ],
      "name": "Transfer",
      "type": "event"
    },
    {
      "inputs": [
        {
          "internalType": "address",
          "name": "",
          "type": "address"
        }
      ],
      "name": "_presaleClaimed",
      "outputs": [
        {
          "internalType": "uint256",
          "name": "",
          "type": "uint256"
        }
      ],
      "stateMutability": "view",
      "type": "function"
    },
    {
      "inputs": [
        {
          "internalType": "address",
          "name": "to",
          "type": "address"
        },
        {
          "internalType": "uint256",
          "name": "tokenId",
          "type": "uint256"
        }
      ],
      "name": "approve",
      "outputs": [],
      "stateMutability": "nonpayable",
      "type": "function"
    },
    {
      "inputs": [
        {
          "internalType": "address",
          "name": "owner",
          "type": "address"
        }
      ],
      "name": "balanceOf",
      "outputs": [
        {
          "internalType": "uint256",
          "name": "",
          "type": "uint256"
        }
      ],
      "stateMutability": "view",
      "type": "function"
    },
    {
      "inputs": [],
      "name": "baseExtension",
      "outputs": [
        {
          "internalType": "string",
          "name": "",
          "type": "string"
        }
      ],
      "stateMutability": "view",
      "type": "function"
    },
    {
      "inputs": [],
      "name": "baseURI",
      "outputs": [
        {
          "internalType": "string",
          "name": "",
          "type": "string"
        }
      ],
      "stateMutability": "view",
      "type": "function"
    },
    {
      "inputs": [
        {
          "internalType": "uint256",
          "name": "tokenId",
          "type": "uint256"
        }
      ],
      "name": "getApproved",
      "outputs": [
        {
          "internalType": "address",
          "name": "",
          "type": "address"
        }
      ],
      "stateMutability": "view",
      "type": "function"
    },
    {
      "inputs": [
        {
          "internalType": "address",
          "name": "owner",
          "type": "address"
        },
        {
          "internalType": "address",
          "name": "operator",
          "type": "address"
        }
      ],
      "name": "isApprovedForAll",
      "outputs": [
        {
          "internalType": "bool",
          "name": "",
          "type": "bool"
        }
      ],
      "stateMutability": "view",
      "type": "function"
    },
    {
      "inputs": [],
      "name": "maxSupply",
      "outputs": [
        {
          "internalType": "uint256",
          "name": "",
          "type": "uint256"
        }
      ],
      "stateMutability": "view",
      "type": "function"
    },
    {
      "inputs": [],
      "name": "name",
      "outputs": [
        {
          "internalType": "string",
          "name": "",
          "type": "string"
        }
      ],
      "stateMutability": "view",
      "type": "function"
    },
    {
      "inputs": [],
      "name": "notRevealedUri",
      "outputs": [
        {
          "internalType": "string",
          "name": "",
          "type": "string"
        }
      ],
      "stateMutability": "view",
      "type": "function"
    },
    {
      "inputs": [],
      "name": "owner",
      "outputs": [
        {
          "internalType": "address",
          "name": "",
          "type": "address"
        }
      ],
      "stateMutability": "view",
      "type": "function"
    },
    {
      "inputs": [
        {
          "internalType": "uint256",
          "name": "tokenId",
          "type": "uint256"
        }
      ],
      "name": "ownerOf",
      "outputs": [
        {
          "internalType": "address",
          "name": "",
          "type": "address"
        }
      ],
      "stateMutability": "view",
      "type": "function"
    },
    {
      "inputs": [],
      "name": "paused",
      "outputs": [
        {
          "internalType": "bool",
          "name": "",
          "type": "bool"
        }
      ],
      "stateMutability": "view",
      "type": "function"
    },
    {
      "inputs": [
        {
          "internalType": "uint256",
          "name": "index",
          "type": "uint256"
        }
      ],
      "name": "payee",
      "outputs": [
        {
          "internalType": "address",
          "name": "",
          "type": "address"
        }
      ],
      "stateMutability": "view",
      "type": "function"
    },
    {
      "inputs": [],
      "name": "preSaleLimit",
      "outputs": [
        {
          "internalType": "uint256",
          "name": "",
          "type": "uint256"
        }
      ],
      "stateMutability": "view",
      "type": "function"
    },
    {
      "inputs": [],
      "name": "presaleM",
      "outputs": [
        {
          "internalType": "bool",
          "name": "",
          "type": "bool"
        }
      ],
      "stateMutability": "view",
      "type": "function"
    },
    {
      "inputs": [
        {
          "internalType": "address",
          "name": "account",
          "type": "address"
        },
        {
          "internalType": "uint256",
          "name": "_amount",
          "type": "uint256"
        },
        {
          "internalType": "bytes32[]",
          "name": "_proof",
          "type": "bytes32[]"
        }
      ],
      "name": "presaleMint",
      "outputs": [],
      "stateMutability": "payable",
      "type": "function"
    },
    {
      "inputs": [],
      "name": "publicM",
      "outputs": [
        {
          "internalType": "bool",
          "name": "",
          "type": "bool"
        }
      ],
      "stateMutability": "view",
      "type": "function"
    },
    {
      "inputs": [],
      "name": "publicSaleLimit",
      "outputs": [
        {
          "internalType": "uint256",
          "name": "",
          "type": "uint256"
        }
      ],
      "stateMutability": "view",
      "type": "function"
    },
    {
      "inputs": [
        {
          "internalType": "uint256",
          "name": "_amount",
          "type": "uint256"
        }
      ],
      "name": "publicSaleMint",
      "outputs": [],
      "stateMutability": "payable",
      "type": "function"
    },
    {
      "inputs": [
        {
          "internalType": "address payable",
          "name": "account",
          "type": "address"
        }
      ],
      "name": "release",
      "outputs": [],
      "stateMutability": "nonpayable",
      "type": "function"
    },
    {
      "inputs": [
        {
          "internalType": "contract IERC20",
          "name": "token",
          "type": "address"
        },
        {
          "internalType": "address",
          "name": "account",
          "type": "address"
        }
      ],
      "name": "release",
      "outputs": [],
      "stateMutability": "nonpayable",
      "type": "function"
    },
    {
      "inputs": [
        {
          "internalType": "contract IERC20",
          "name": "token",
          "type": "address"
        },
        {
          "internalType": "address",
          "name": "account",
          "type": "address"
        }
      ],
      "name": "released",
      "outputs": [
        {
          "internalType": "uint256",
          "name": "",
          "type": "uint256"
        }
      ],
      "stateMutability": "view",
      "type": "function"
    },
    {
      "inputs": [
        {
          "internalType": "address",
          "name": "account",
          "type": "address"
        }
      ],
      "name": "released",
      "outputs": [
        {
          "internalType": "uint256",
          "name": "",
          "type": "uint256"
        }
      ],
      "stateMutability": "view",
      "type": "function"
    },
    {
      "inputs": [],
      "name": "renounceOwnership",
      "outputs": [],
      "stateMutability": "nonpayable",
      "type": "function"
    },
    {
      "inputs": [],
      "name": "reveal",
      "outputs": [],
      "stateMutability": "nonpayable",
      "type": "function"
    },
    {
      "inputs": [],
      "name": "revealed",
      "outputs": [
        {
          "internalType": "bool",
          "name": "",
          "type": "bool"
        }
      ],
      "stateMutability": "view",
      "type": "function"
    },
    {
      "inputs": [],
      "name": "root",
      "outputs": [
        {
          "internalType": "bytes32",
          "name": "",
          "type": "bytes32"
        }
      ],
      "stateMutability": "view",
      "type": "function"
    },
    {
      "inputs": [
        {
          "internalType": "address",
          "name": "from",
          "type": "address"
        },
        {
          "internalType": "address",
          "name": "to",
          "type": "address"
        },
        {
          "internalType": "uint256",
          "name": "tokenId",
          "type": "uint256"
        }
      ],
      "name": "safeTransferFrom",
      "outputs": [],
      "stateMutability": "nonpayable",
      "type": "function"
    },
    {
      "inputs": [
        {
          "internalType": "address",
          "name": "from",
          "type": "address"
        },
        {
          "internalType": "address",
          "name": "to",
          "type": "address"
        },
        {
          "internalType": "uint256",
          "name": "tokenId",
          "type": "uint256"
        },
        {
          "internalType": "bytes",
          "name": "_data",
          "type": "bytes"
        }
      ],
      "name": "safeTransferFrom",
      "outputs": [],
      "stateMutability": "nonpayable",
      "type": "function"
    },
    {
      "inputs": [
        {
          "internalType": "address",
          "name": "operator",
          "type": "address"
        },
        {
          "internalType": "bool",
          "name": "approved",
          "type": "bool"
        }
      ],
      "name": "setApprovalForAll",
      "outputs": [],
      "stateMutability": "nonpayable",
      "type": "function"
    },
    {
      "inputs": [
        {
          "internalType": "string",
          "name": "_newBaseExtension",
          "type": "string"
        }
      ],
      "name": "setBaseExtension",
      "outputs": [],
      "stateMutability": "nonpayable",
      "type": "function"
    },
    {
      "inputs": [
        {
          "internalType": "string",
          "name": "_tokenBaseURI",
          "type": "string"
        }
      ],
      "name": "setBaseURI",
      "outputs": [],
      "stateMutability": "nonpayable",
      "type": "function"
    },
    {
      "inputs": [
        {
          "internalType": "bytes32",
          "name": "merkleroot",
          "type": "bytes32"
        }
      ],
      "name": "setMerkleRoot",
      "outputs": [],
      "stateMutability": "nonpayable",
      "type": "function"
    },
    {
      "inputs": [
        {
          "internalType": "string",
          "name": "_notRevealedURI",
          "type": "string"
        }
      ],
      "name": "setNotRevealedURI",
      "outputs": [],
      "stateMutability": "nonpayable",
      "type": "function"
    },
    {
      "inputs": [
        {
          "internalType": "address",
          "name": "account",
          "type": "address"
        }
      ],
      "name": "shares",
      "outputs": [
        {
          "internalType": "uint256",
          "name": "",
          "type": "uint256"
        }
      ],
      "stateMutability": "view",
      "type": "function"
    },
    {
      "inputs": [
        {
          "internalType": "bytes4",
          "name": "interfaceId",
          "type": "bytes4"
        }
      ],
      "name": "supportsInterface",
      "outputs": [
        {
          "internalType": "bool",
          "name": "",
          "type": "bool"
        }
      ],
      "stateMutability": "view",
      "type": "function"
    },
    {
      "inputs": [],
      "name": "symbol",
      "outputs": [
        {
          "internalType": "string",
          "name": "",
          "type": "string"
        }
      ],
      "stateMutability": "view",
      "type": "function"
    },
    {
      "inputs": [],
      "name": "togglePause",
      "outputs": [],
      "stateMutability": "nonpayable",
      "type": "function"
    },
    {
      "inputs": [],
      "name": "togglePresale",
      "outputs": [],
      "stateMutability": "nonpayable",
      "type": "function"
    },
    {
      "inputs": [],
      "name": "togglePublicSale",
      "outputs": [],
      "stateMutability": "nonpayable",
      "type": "function"
    },
    {
      "inputs": [
        {
          "internalType": "uint256",
          "name": "tokenId",
          "type": "uint256"
        }
      ],
      "name": "tokenURI",
      "outputs": [
        {
          "internalType": "string",
          "name": "",
          "type": "string"
        }
      ],
      "stateMutability": "view",
      "type": "function"
    },
    {
      "inputs": [
        {
          "internalType": "contract IERC20",
          "name": "token",
          "type": "address"
        }
      ],
      "name": "totalReleased",
      "outputs": [
        {
          "internalType": "uint256",
          "name": "",
          "type": "uint256"
        }
      ],
      "stateMutability": "view",
      "type": "function"
    },
    {
      "inputs": [],
      "name": "totalReleased",
      "outputs": [
        {
          "internalType": "uint256",
          "name": "",
          "type": "uint256"
        }
      ],
      "stateMutability": "view",
      "type": "function"
    },
    {
      "inputs": [],
      "name": "totalShares",
      "outputs": [
        {
          "internalType": "uint256",
          "name": "",
          "type": "uint256"
        }
      ],
      "stateMutability": "view",
      "type": "function"
    },
    {
      "inputs": [],
      "name": "totalSupply",
      "outputs": [
        {
          "internalType": "uint256",
          "name": "",
          "type": "uint256"
        }
      ],
      "stateMutability": "view",
      "type": "function"
    },
    {
      "inputs": [
        {
          "internalType": "address",
          "name": "from",
          "type": "address"
        },
        {
          "internalType": "address",
          "name": "to",
          "type": "address"
        },
        {
          "internalType": "uint256",
          "name": "tokenId",
          "type": "uint256"
        }
      ],
      "name": "transferFrom",
      "outputs": [],
      "stateMutability": "nonpayable",
      "type": "function"
    },
    {
      "inputs": [
        {
          "internalType": "address",
          "name": "newOwner",
          "type": "address"
        }
      ],
      "name": "transferOwnership",
      "outputs": [],
      "stateMutability": "nonpayable",
      "type": "function"
    },
    {
      "inputs": [
        {
          "internalType": "address",
          "name": "",
          "type": "address"
        }
      ],
      "name": "walletMints",
      "outputs": [
        {
          "internalType": "uint256",
          "name": "",
          "type": "uint256"
        }
      ],
      "stateMutability": "view",
      "type": "function"
    },
    {
      "stateMutability": "payable",
      "type": "receive"
    }
  ],
  "bytecode": "0x600a60115560e0604052603660808181529062003af460a03980516200002e916012916020909101906200065d565b5060408051808201909152600580825264173539b7b760d91b60209092019182526200005d916014916200065d565b506015805463ffffffff1916620101001790556002601655662386f26fc100006018556040805160208101909152606481526200009f90601a906001620006ec565b506040805160208101909152734263d6f7dd08a8f7b85150725349852d401ca3f18152620000d290601b9060016200072f565b50348015620000e057600080fd5b5060405162003b2a38038062003b2a8339810160408190526200010391620007d1565b601b8054806020026020016040519081016040528092919081815260200182805480156200015b57602002820191906000526020600020905b81546001600160a01b031681526001909101906020018083116200013c575b5050505050601a805480602002602001604051908101604052809291908181526020018280548015620001ae57602002820191906000526020600020905b81548152602001906001019080831162000199575b5050604080518082018252600c81526b2932b9b4b634b2b73a2432b960a11b6020808301918252835180850190945260038452622422a960e91b908401528151919550919350620002049250600091906200065d565b5080516200021a9060019060208401906200065d565b5050506200023762000231620003a460201b60201c565b620003a8565b60016007558051825114620002ae5760405162461bcd60e51b815260206004820152603260248201527f5061796d656e7453706c69747465723a2070617965657320616e6420736861726044820152710cae640d8cadccee8d040dad2e6dac2e8c6d60731b60648201526084015b60405180910390fd5b6000825111620003015760405162461bcd60e51b815260206004820152601a60248201527f5061796d656e7453706c69747465723a206e6f207061796565730000000000006044820152606401620002a5565b60005b82518110156200036d5762000358838281518110620003275762000327620008cc565b6020026020010151838381518110620003445762000344620008cc565b6020026020010151620003fa60201b60201c565b806200036481620008f8565b91505062000304565b505050600f829055601080546001600160a01b0319166001600160a01b0383161790556200039b83620005e8565b5050506200096e565b3390565b600680546001600160a01b038381166001600160a01b0319831681179093556040519116919082907f8be0079c531659141344cd1fd0a4f28419497f9722a3daafe3b4186f6b6457e090600090a35050565b6001600160a01b038216620004675760405162461bcd60e51b815260206004820152602c60248201527f5061796d656e7453706c69747465723a206163636f756e74206973207468652060448201526b7a65726f206164647265737360a01b6064820152608401620002a5565b60008111620004b95760405162461bcd60e51b815260206004820152601d60248201527f5061796d656e7453706c69747465723a207368617265732061726520300000006044820152606401620002a5565b6001600160a01b0382166000908152600a602052604090205415620005355760405162461bcd60e51b815260206004820152602b60248201527f5061796d656e7453706c69747465723a206163636f756e7420616c726561647960448201526a206861732073686172657360a81b6064820152608401620002a5565b600c8054600181019091557fdf6966c971051c3d54ec59162606531493a51404a002842f56009d7e5cf4a8c70180546001600160a01b0319166001600160a01b0384169081179091556000908152600a602052604090208190556008546200059f90829062000916565b600855604080516001600160a01b0384168152602081018390527f40c340f65e17194d14ddddb073d3c9f888e3cb52b5aae0c6c7706b4fbc905fac910160405180910390a15050565b6006546001600160a01b03163314620006445760405162461bcd60e51b815260206004820181905260248201527f4f776e61626c653a2063616c6c6572206973206e6f7420746865206f776e65726044820152606401620002a5565b8051620006599060129060208401906200065d565b5050565b8280546200066b9062000931565b90600052602060002090601f0160209004810192826200068f5760008555620006da565b82601f10620006aa57805160ff1916838001178555620006da565b82800160010185558215620006da579182015b82811115620006da578251825591602001919060010190620006bd565b50620006e892915062000787565b5090565b828054828255906000526020600020908101928215620006da579160200282015b82811115620006da578251829060ff169055916020019190600101906200070d565b828054828255906000526020600020908101928215620006da579160200282015b82811115620006da57825182546001600160a01b0319166001600160a01b0390911617825560209092019160019091019062000750565b5b80821115620006e8576000815560010162000788565b634e487b7160e01b600052604160045260246000fd5b80516001600160a01b0381168114620007cc57600080fd5b919050565b600080600060608486031215620007e757600080fd5b83516001600160401b0380821115620007ff57600080fd5b818601915086601f8301126200081457600080fd5b8151818111156200082957620008296200079e565b604051601f8201601f19908116603f011681019083821181831017156200085457620008546200079e565b816040528281526020935089848487010111156200087157600080fd5b600091505b8282101562000895578482018401518183018501529083019062000876565b82821115620008a75760008484830101525b8097505050508086015193505050620008c360408501620007b4565b90509250925092565b634e487b7160e01b600052603260045260246000fd5b634e487b7160e01b600052601160045260246000fd5b60006000198214156200090f576200090f620008e2565b5060010190565b600082198211156200092c576200092c620008e2565b500190565b600181811c908216806200094657607f821691505b602082108114156200096857634e487b7160e01b600052602260045260246000fd5b50919050565b613176806200097e6000396000f3fe6080604052600436106102b25760003560e01c80638cc4de1911610175578063c6682862116100dc578063e222c7f911610095578063ebf0c7171161006f578063ebf0c7171461088e578063f0293fd3146108a4578063f2c4ce1e146108d1578063f2fde38b146108f157600080fd5b8063e222c7f914610844578063e33b7de314610859578063e985e9c51461086e57600080fd5b8063c66828621461076d578063c87b56dd14610782578063ce7c2ac2146107a2578063d5abeb01146107d8578063d79779b2146107ee578063da3ef23f1461082457600080fd5b8063a22cb4651161012e578063a22cb465146106cf578063a45063c0146106ef578063a475b5dd14610710578063b3ab66b014610725578063b88d4fde14610738578063c4ae31681461075857600080fd5b80638cc4de19146106115780638da5cb5b1461063e578063909d68771461065c578063954dc3e31461067157806395d89b41146106845780639852595c1461069957600080fd5b806342842e0e116102195780636c0360eb116101d25780636c0360eb146105725780636e3de87c1461058757806370a082311461059c578063715018a6146105bc5780637cb64759146105d15780638b83209b146105f157600080fd5b806342842e0e146104b957806348b75044146104d957806351830227146104f957806355f804b3146105185780635c975abb146105385780636352211e1461055257600080fd5b806318160ddd1161026b57806318160ddd146103e6578063191655871461040957806323b872dd1461042957806334393743146104495780633a98ef391461045e578063406072a91461047357600080fd5b806301ffc9a71461030057806306fdde0314610335578063081812fc14610357578063081c8c441461038f578063095ea7b3146103a45780631798d58b146103c657600080fd5b366102fb577f6ef95f06320e7a25a04a175ca677b7052bdd97131872c2192525a629f51be77033604080516001600160a01b0390921682523460208301520160405180910390a1005b600080fd5b34801561030c57600080fd5b5061032061031b3660046128eb565b610911565b60405190151581526020015b60405180910390f35b34801561034157600080fd5b5061034a610963565b60405161032c9190612960565b34801561036357600080fd5b50610377610372366004612973565b6109f5565b6040516001600160a01b03909116815260200161032c565b34801561039b57600080fd5b5061034a610a8f565b3480156103b057600080fd5b506103c46103bf3660046129a1565b610b1d565b005b3480156103d257600080fd5b506015546103209062010000900460ff1681565b3480156103f257600080fd5b506103fb610c33565b60405190815260200161032c565b34801561041557600080fd5b506103c46104243660046129cd565b610c43565b34801561043557600080fd5b506103c46104443660046129ea565b610d71565b34801561045557600080fd5b506103c4610da2565b34801561046a57600080fd5b506008546103fb565b34801561047f57600080fd5b506103fb61048e366004612a2b565b6001600160a01b039182166000908152600e6020908152604080832093909416825291909152205490565b3480156104c557600080fd5b506103c46104d43660046129ea565b610deb565b3480156104e557600080fd5b506103c46104f4366004612a2b565b610e06565b34801561050557600080fd5b5060155461032090610100900460ff1681565b34801561052457600080fd5b506103c4610533366004612af0565b610fee565b34801561054457600080fd5b506015546103209060ff1681565b34801561055e57600080fd5b5061037761056d366004612973565b61102f565b34801561057e57600080fd5b5061034a6110a6565b34801561059357600080fd5b506103fb600181565b3480156105a857600080fd5b506103fb6105b73660046129cd565b6110b3565b3480156105c857600080fd5b506103c461113a565b3480156105dd57600080fd5b506103c46105ec366004612973565b611170565b3480156105fd57600080fd5b5061037761060c366004612973565b61119f565b34801561061d57600080fd5b506103fb61062c3660046129cd565b60176020526000908152604090205481565b34801561064a57600080fd5b506006546001600160a01b0316610377565b34801561066857600080fd5b506103fb600281565b6103c461067f366004612b39565b6111cf565b34801561069057600080fd5b5061034a6114db565b3480156106a557600080fd5b506103fb6106b43660046129cd565b6001600160a01b03166000908152600b602052604090205490565b3480156106db57600080fd5b506103c46106ea366004612bd3565b6114ea565b3480156106fb57600080fd5b50601554610320906301000000900460ff1681565b34801561071c57600080fd5b506103c46114f5565b6103c4610733366004612973565b611530565b34801561074457600080fd5b506103c4610753366004612c01565b611731565b34801561076457600080fd5b506103c4611769565b34801561077957600080fd5b5061034a6117a7565b34801561078e57600080fd5b5061034a61079d366004612973565b6117b4565b3480156107ae57600080fd5b506103fb6107bd3660046129cd565b6001600160a01b03166000908152600a602052604090205490565b3480156107e457600080fd5b506103fb60115481565b3480156107fa57600080fd5b506103fb6108093660046129cd565b6001600160a01b03166000908152600d602052604090205490565b34801561083057600080fd5b506103c461083f366004612af0565b611933565b34801561085057600080fd5b506103c4611970565b34801561086557600080fd5b506009546103fb565b34801561087a57600080fd5b50610320610889366004612a2b565b6119bb565b34801561089a57600080fd5b506103fb600f5481565b3480156108b057600080fd5b506103fb6108bf3660046129cd565b601c6020526000908152604090205481565b3480156108dd57600080fd5b506103c46108ec366004612af0565b611a8b565b3480156108fd57600080fd5b506103c461090c3660046129cd565b611ac8565b60006001600160e01b031982166380ac58cd60e01b148061094257506001600160e01b03198216635b5e139f60e01b145b8061095d57506301ffc9a760e01b6001600160e01b03198316145b92915050565b60606000805461097290612c81565b80601f016020809104026020016040519081016040528092919081815260200182805461099e90612c81565b80156109eb5780601f106109c0576101008083540402835291602001916109eb565b820191906000526020600020905b8154815290600101906020018083116109ce57829003601f168201915b5050505050905090565b6000818152600260205260408120546001600160a01b0316610a735760405162461bcd60e51b815260206004820152602c60248201527f4552433732313a20617070726f76656420717565727920666f72206e6f6e657860448201526b34b9ba32b73a103a37b5b2b760a11b60648201526084015b60405180910390fd5b506000908152600460205260409020546001600160a01b031690565b60138054610a9c90612c81565b80601f0160208091040260200160405190810160405280929190818152602001828054610ac890612c81565b8015610b155780601f10610aea57610100808354040283529160200191610b15565b820191906000526020600020905b815481529060010190602001808311610af857829003601f168201915b505050505081565b6000610b288261102f565b9050806001600160a01b0316836001600160a01b03161415610b965760405162461bcd60e51b815260206004820152602160248201527f4552433732313a20617070726f76616c20746f2063757272656e74206f776e656044820152603960f91b6064820152608401610a6a565b336001600160a01b0382161480610bb25750610bb281336119bb565b610c245760405162461bcd60e51b815260206004820152603860248201527f4552433732313a20617070726f76652063616c6c6572206973206e6f74206f7760448201527f6e6572206e6f7220617070726f76656420666f7220616c6c00000000000000006064820152608401610a6a565b610c2e8383611b63565b505050565b6000610c3e60195490565b905090565b6001600160a01b0381166000908152600a6020526040902054610c785760405162461bcd60e51b8152600401610a6a90612cbc565b6000610c8360095490565b610c8d9047612d18565b90506000610cba8383610cb5866001600160a01b03166000908152600b602052604090205490565b611bd1565b905080610cd95760405162461bcd60e51b8152600401610a6a90612d30565b6001600160a01b0383166000908152600b602052604081208054839290610d01908490612d18565b925050819055508060096000828254610d1a9190612d18565b90915550610d2a90508382611c0f565b604080516001600160a01b0385168152602081018390527fdf20fd1e76bc69d672e4814fafb2c449bba3a5369d8359adf9e05e6fde87b056910160405180910390a1505050565b610d7b3382611d28565b610d975760405162461bcd60e51b8152600401610a6a90612d7b565b610c2e838383611df7565b6006546001600160a01b03163314610dcc5760405162461bcd60e51b8152600401610a6a90612dcc565b6015805462ff0000198116620100009182900460ff1615909102179055565b610c2e83838360405180602001604052806000815250611731565b6001600160a01b0381166000908152600a6020526040902054610e3b5760405162461bcd60e51b8152600401610a6a90612cbc565b6001600160a01b0382166000908152600d60205260408120546040516370a0823160e01b81523060048201526001600160a01b038516906370a082319060240160206040518083038186803b158015610e9357600080fd5b505afa158015610ea7573d6000803e3d6000fd5b505050506040513d601f19601f82011682018060405250810190610ecb9190612e01565b610ed59190612d18565b90506000610f0e8383610cb587876001600160a01b039182166000908152600e6020908152604080832093909416825291909152205490565b905080610f2d5760405162461bcd60e51b8152600401610a6a90612d30565b6001600160a01b038085166000908152600e6020908152604080832093871683529290529081208054839290610f64908490612d18565b90915550506001600160a01b0384166000908152600d602052604081208054839290610f91908490612d18565b90915550610fa29050848483611f93565b604080516001600160a01b038581168252602082018490528616917f3be5b7a71e84ed12875d241991c70855ac5817d847039e17a9d895c1ceb0f18a910160405180910390a250505050565b6006546001600160a01b031633146110185760405162461bcd60e51b8152600401610a6a90612dcc565b805161102b90601290602084019061283c565b5050565b6000818152600260205260408120546001600160a01b03168061095d5760405162461bcd60e51b815260206004820152602960248201527f4552433732313a206f776e657220717565727920666f72206e6f6e657869737460448201526832b73a103a37b5b2b760b91b6064820152608401610a6a565b60128054610a9c90612c81565b60006001600160a01b03821661111e5760405162461bcd60e51b815260206004820152602a60248201527f4552433732313a2062616c616e636520717565727920666f7220746865207a65604482015269726f206164647265737360b01b6064820152608401610a6a565b506001600160a01b031660009081526003602052604090205490565b6006546001600160a01b031633146111645760405162461bcd60e51b8152600401610a6a90612dcc565b61116e6000611fe5565b565b6006546001600160a01b0316331461119a5760405162461bcd60e51b8152600401610a6a90612dcc565b600f55565b6000600c82815481106111b4576111b4612e1a565b6000918252602090912001546001600160a01b031692915050565b818161124682828080602002602001604051908101604052809392919081815260200183836020028082843760009201919091525050600f546040516bffffffffffffffffffffffff193360601b166020820152909250603401905060405160208183030381529060405280519060200120612037565b15156001146112675760405162461bcd60e51b8152600401610a6a90612e30565b3332146112865760405162461bcd60e51b8152600401610a6a90612e30565b336001600160a01b038716146112de5760405162461bcd60e51b815260206004820152601960248201527f526573696c69656e744865723a204e6f7420616c6c6f776564000000000000006044820152606401610a6a565b60155462010000900460ff166113365760405162461bcd60e51b815260206004820152601c60248201527f526573696c69656e744865723a2050726573616c65206973204f4646000000006044820152606401610a6a565b60155460ff16156113895760405162461bcd60e51b815260206004820181905260248201527f526573696c69656e744865723a20436f6e7472616374206973207061757365646044820152606401610a6a565b6016548511156113ab5760405162461bcd60e51b8152600401610a6a90612e5c565b601654336000908152601760205260409020546113c9908790612d18565b11156113e75760405162461bcd60e51b8152600401610a6a90612e5c565b60006113f260195490565b6011549091506114028783612d18565b111561145a5760405162461bcd60e51b815260206004820152602160248201527f526573696c69656e744865723a206d617820737570706c7920657863656564656044820152601960fa1b6064820152608401610a6a565b34866018546114699190612ea7565b11156114875760405162461bcd60e51b8152600401610a6a90612ec6565b33600090815260176020526040812080548892906114a6908490612d18565b90915550600090505b868110156114d1576114bf61204d565b806114c981612f0a565b9150506114af565b5050505050505050565b60606001805461097290612c81565b61102b3383836120d2565b6006546001600160a01b0316331461151f5760405162461bcd60e51b8152600401610a6a90612dcc565b6015805461ff001916610100179055565b33321461154f5760405162461bcd60e51b8152600401610a6a90612e30565b6015546301000000900460ff166115a85760405162461bcd60e51b815260206004820152601f60248201527f526573696c69656e744865723a205075626c696353616c65206973204f4646006044820152606401610a6a565b60155460ff16156115fb5760405162461bcd60e51b815260206004820181905260248201527f526573696c69656e744865723a20436f6e7472616374206973207061757365646044820152606401610a6a565b6000811161164b5760405162461bcd60e51b815260206004820152601960248201527f526573696c69656e744865723a207a65726f20616d6f756e74000000000000006044820152606401610a6a565b600181111561166c5760405162461bcd60e51b8152600401610a6a90612e5c565b600061167760195490565b6011549091506116878383612d18565b11156116df5760405162461bcd60e51b815260206004820152602160248201527f526573696c69656e744865723a204d617820737570706c7920657863656564656044820152601960fa1b6064820152608401610a6a565b34826018546116ee9190612ea7565b111561170c5760405162461bcd60e51b8152600401610a6a90612ec6565b60005b82811015610c2e5761171f61204d565b8061172981612f0a565b91505061170f565b61173b3383611d28565b6117575760405162461bcd60e51b8152600401610a6a90612d7b565b611763848484846121a1565b50505050565b6006546001600160a01b031633146117935760405162461bcd60e51b8152600401610a6a90612dcc565b6015805460ff19811660ff90911615179055565b60148054610a9c90612c81565b6000818152600260205260409020546060906001600160a01b03166118335760405162461bcd60e51b815260206004820152602f60248201527f4552433732314d657461646174613a2055524920717565727920666f72206e6f60448201526e3732bc34b9ba32b73a103a37b5b2b760891b6064820152608401610a6a565b601554610100900460ff166118d4576013805461184f90612c81565b80601f016020809104026020016040519081016040528092919081815260200182805461187b90612c81565b80156118c85780601f1061189d576101008083540402835291602001916118c8565b820191906000526020600020905b8154815290600101906020018083116118ab57829003601f168201915b50505050509050919050565b60006118de6121d4565b905060008151116118fe576040518060200160405280600081525061192c565b80611908846121e3565b601460405160200161191c93929190612f25565b6040516020818303038152906040525b9392505050565b6006546001600160a01b0316331461195d5760405162461bcd60e51b8152600401610a6a90612dcc565b805161102b90601490602084019061283c565b6006546001600160a01b0316331461199a5760405162461bcd60e51b8152600401610a6a90612dcc565b6015805463ff00000019811663010000009182900460ff1615909102179055565b60105460405163c455279160e01b81526001600160a01b03848116600483015260009281169190841690829063c45527919060240160206040518083038186803b158015611a0857600080fd5b505afa158015611a1c573d6000803e3d6000fd5b505050506040513d601f19601f82011682018060405250810190611a409190612fe9565b6001600160a01b03161415611a5957600191505061095d565b6001600160a01b0380851660009081526005602090815260408083209387168352929052205460ff165b949350505050565b6006546001600160a01b03163314611ab55760405162461bcd60e51b8152600401610a6a90612dcc565b805161102b90601390602084019061283c565b6006546001600160a01b03163314611af25760405162461bcd60e51b8152600401610a6a90612dcc565b6001600160a01b038116611b575760405162461bcd60e51b815260206004820152602660248201527f4f776e61626c653a206e6577206f776e657220697320746865207a65726f206160448201526564647265737360d01b6064820152608401610a6a565b611b6081611fe5565b50565b600081815260046020526040902080546001600160a01b0319166001600160a01b0384169081179091558190611b988261102f565b6001600160a01b03167f8c5be1e5ebec7d5bd14f71427d1e84f3dd0314c0f7b2291e5b200ac8c7c3b92560405160405180910390a45050565b6008546001600160a01b0384166000908152600a602052604081205490918391611bfb9086612ea7565b611c05919061301c565b611a839190613030565b80471015611c5f5760405162461bcd60e51b815260206004820152601d60248201527f416464726573733a20696e73756666696369656e742062616c616e63650000006044820152606401610a6a565b6000826001600160a01b03168260405160006040518083038185875af1925050503d8060008114611cac576040519150601f19603f3d011682016040523d82523d6000602084013e611cb1565b606091505b5050905080610c2e5760405162461bcd60e51b815260206004820152603a60248201527f416464726573733a20756e61626c6520746f2073656e642076616c75652c207260448201527f6563697069656e74206d617920686176652072657665727465640000000000006064820152608401610a6a565b6000818152600260205260408120546001600160a01b0316611da15760405162461bcd60e51b815260206004820152602c60248201527f4552433732313a206f70657261746f7220717565727920666f72206e6f6e657860448201526b34b9ba32b73a103a37b5b2b760a11b6064820152608401610a6a565b6000611dac8361102f565b9050806001600160a01b0316846001600160a01b03161480611de75750836001600160a01b0316611ddc846109f5565b6001600160a01b0316145b80611a835750611a8381856119bb565b826001600160a01b0316611e0a8261102f565b6001600160a01b031614611e6e5760405162461bcd60e51b815260206004820152602560248201527f4552433732313a207472616e736665722066726f6d20696e636f72726563742060448201526437bbb732b960d91b6064820152608401610a6a565b6001600160a01b038216611ed05760405162461bcd60e51b8152602060048201526024808201527f4552433732313a207472616e7366657220746f20746865207a65726f206164646044820152637265737360e01b6064820152608401610a6a565b611edb600082611b63565b6001600160a01b0383166000908152600360205260408120805460019290611f04908490613030565b90915550506001600160a01b0382166000908152600360205260408120805460019290611f32908490612d18565b909155505060008181526002602052604080822080546001600160a01b0319166001600160a01b0386811691821790925591518493918716917fddf252ad1be2c89b69c2b068fc378daa952ba7f163c4a11628f55a4df523b3ef91a4505050565b604080516001600160a01b038416602482015260448082018490528251808303909101815260649091019091526020810180516001600160e01b031663a9059cbb60e01b179052610c2e9084906122e1565b600680546001600160a01b038381166001600160a01b0319831681179093556040519116919082907f8be0079c531659141344cd1fd0a4f28419497f9722a3daafe3b4186f6b6457e090600090a35050565b60008261204485846123b3565b14949350505050565b600260075414156120a05760405162461bcd60e51b815260206004820152601f60248201527f5265656e7472616e637947756172643a207265656e7472616e742063616c6c006044820152606401610a6a565b60026007556120b3601980546001019055565b60006120be60195490565b90506120ca3382612427565b506001600755565b816001600160a01b0316836001600160a01b031614156121345760405162461bcd60e51b815260206004820152601960248201527f4552433732313a20617070726f766520746f2063616c6c6572000000000000006044820152606401610a6a565b6001600160a01b03838116600081815260056020908152604080832094871680845294825291829020805460ff191686151590811790915591519182527f17307eab39ab6107e8899845ad3d59bd9653f200f220920489ca2b5937696c31910160405180910390a3505050565b6121ac848484611df7565b6121b884848484612441565b6117635760405162461bcd60e51b8152600401610a6a90613047565b60606012805461097290612c81565b6060816122075750506040805180820190915260018152600360fc1b602082015290565b8160005b8115612231578061221b81612f0a565b915061222a9050600a8361301c565b915061220b565b60008167ffffffffffffffff81111561224c5761224c612a64565b6040519080825280601f01601f191660200182016040528015612276576020820181803683370190505b5090505b8415611a835761228b600183613030565b9150612298600a86613099565b6122a3906030612d18565b60f81b8183815181106122b8576122b8612e1a565b60200101906001600160f81b031916908160001a9053506122da600a8661301c565b945061227a565b6000612336826040518060400160405280602081526020017f5361666545524332303a206c6f772d6c6576656c2063616c6c206661696c6564815250856001600160a01b031661254e9092919063ffffffff16565b805190915015610c2e578080602001905181019061235491906130ad565b610c2e5760405162461bcd60e51b815260206004820152602a60248201527f5361666545524332303a204552433230206f7065726174696f6e20646964206e6044820152691bdd081cdd58d8d9595960b21b6064820152608401610a6a565b600081815b845181101561241f5760008582815181106123d5576123d5612e1a565b602002602001015190508083116123fb576000838152602082905260409020925061240c565b600081815260208490526040902092505b508061241781612f0a565b9150506123b8565b509392505050565b61102b82826040518060200160405280600081525061255d565b60006001600160a01b0384163b1561254357604051630a85bd0160e11b81526001600160a01b0385169063150b7a02906124859033908990889088906004016130ca565b602060405180830381600087803b15801561249f57600080fd5b505af19250505080156124cf575060408051601f3d908101601f191682019092526124cc91810190613107565b60015b612529573d8080156124fd576040519150601f19603f3d011682016040523d82523d6000602084013e612502565b606091505b5080516125215760405162461bcd60e51b8152600401610a6a90613047565b805181602001fd5b6001600160e01b031916630a85bd0160e11b149050611a83565b506001949350505050565b6060611a838484600085612590565b61256783836126c1565b6125746000848484612441565b610c2e5760405162461bcd60e51b8152600401610a6a90613047565b6060824710156125f15760405162461bcd60e51b815260206004820152602660248201527f416464726573733a20696e73756666696369656e742062616c616e636520666f6044820152651c8818d85b1b60d21b6064820152608401610a6a565b6001600160a01b0385163b6126485760405162461bcd60e51b815260206004820152601d60248201527f416464726573733a2063616c6c20746f206e6f6e2d636f6e74726163740000006044820152606401610a6a565b600080866001600160a01b031685876040516126649190613124565b60006040518083038185875af1925050503d80600081146126a1576040519150601f19603f3d011682016040523d82523d6000602084013e6126a6565b606091505b50915091506126b6828286612803565b979650505050505050565b6001600160a01b0382166127175760405162461bcd60e51b815260206004820181905260248201527f4552433732313a206d696e7420746f20746865207a65726f20616464726573736044820152606401610a6a565b6000818152600260205260409020546001600160a01b03161561277c5760405162461bcd60e51b815260206004820152601c60248201527f4552433732313a20746f6b656e20616c7265616479206d696e746564000000006044820152606401610a6a565b6001600160a01b03821660009081526003602052604081208054600192906127a5908490612d18565b909155505060008181526002602052604080822080546001600160a01b0319166001600160a01b03861690811790915590518392907fddf252ad1be2c89b69c2b068fc378daa952ba7f163c4a11628f55a4df523b3ef908290a45050565b6060831561281257508161192c565b8251156128225782518084602001fd5b8160405162461bcd60e51b8152600401610a6a9190612960565b82805461284890612c81565b90600052602060002090601f01602090048101928261286a57600085556128b0565b82601f1061288357805160ff19168380011785556128b0565b828001600101855582156128b0579182015b828111156128b0578251825591602001919060010190612895565b506128bc9291506128c0565b5090565b5b808211156128bc57600081556001016128c1565b6001600160e01b031981168114611b6057600080fd5b6000602082840312156128fd57600080fd5b813561192c816128d5565b60005b8381101561292357818101518382015260200161290b565b838111156117635750506000910152565b6000815180845261294c816020860160208601612908565b601f01601f19169290920160200192915050565b60208152600061192c6020830184612934565b60006020828403121561298557600080fd5b5035919050565b6001600160a01b0381168114611b6057600080fd5b600080604083850312156129b457600080fd5b82356129bf8161298c565b946020939093013593505050565b6000602082840312156129df57600080fd5b813561192c8161298c565b6000806000606084860312156129ff57600080fd5b8335612a0a8161298c565b92506020840135612a1a8161298c565b929592945050506040919091013590565b60008060408385031215612a3e57600080fd5b8235612a498161298c565b91506020830135612a598161298c565b809150509250929050565b634e487b7160e01b600052604160045260246000fd5b600067ffffffffffffffff80841115612a9557612a95612a64565b604051601f8501601f19908116603f01168101908282118183101715612abd57612abd612a64565b81604052809350858152868686011115612ad657600080fd5b858560208301376000602087830101525050509392505050565b600060208284031215612b0257600080fd5b813567ffffffffffffffff811115612b1957600080fd5b8201601f81018413612b2a57600080fd5b611a8384823560208401612a7a565b60008060008060608587031215612b4f57600080fd5b8435612b5a8161298c565b935060208501359250604085013567ffffffffffffffff80821115612b7e57600080fd5b818701915087601f830112612b9257600080fd5b813581811115612ba157600080fd5b8860208260051b8501011115612bb657600080fd5b95989497505060200194505050565b8015158114611b6057600080fd5b60008060408385031215612be657600080fd5b8235612bf18161298c565b91506020830135612a5981612bc5565b60008060008060808587031215612c1757600080fd5b8435612c228161298c565b93506020850135612c328161298c565b925060408501359150606085013567ffffffffffffffff811115612c5557600080fd5b8501601f81018713612c6657600080fd5b612c7587823560208401612a7a565b91505092959194509250565b600181811c90821680612c9557607f821691505b60208210811415612cb657634e487b7160e01b600052602260045260246000fd5b50919050565b60208082526026908201527f5061796d656e7453706c69747465723a206163636f756e7420686173206e6f2060408201526573686172657360d01b606082015260800190565b634e487b7160e01b600052601160045260246000fd5b60008219821115612d2b57612d2b612d02565b500190565b6020808252602b908201527f5061796d656e7453706c69747465723a206163636f756e74206973206e6f742060408201526a191d59481c185e5b595b9d60aa1b606082015260800190565b60208082526031908201527f4552433732313a207472616e736665722063616c6c6572206973206e6f74206f6040820152701ddb995c881b9bdc88185c1c1c9bdd9959607a1b606082015260800190565b6020808252818101527f4f776e61626c653a2063616c6c6572206973206e6f7420746865206f776e6572604082015260600190565b600060208284031215612e1357600080fd5b5051919050565b634e487b7160e01b600052603260045260246000fd5b6020808252601290820152712737ba1030b63637bbb2b21037b934b3b4b760711b604082015260600190565b6020808252602b908201527f526573696c69656e744865723a20596f752063616e2774206d696e7420736f2060408201526a6d75636820746f6b656e7360a81b606082015260800190565b6000816000190483118215151615612ec157612ec1612d02565b500290565b60208082526024908201527f526573696c69656e744865723a204e6f7420656e6f75676820657468657273206040820152631cd95b9d60e21b606082015260800190565b6000600019821415612f1e57612f1e612d02565b5060010190565b600084516020612f388285838a01612908565b855191840191612f4b8184848a01612908565b8554920191600090600181811c9080831680612f6857607f831692505b858310811415612f8657634e487b7160e01b85526022600452602485fd5b808015612f9a5760018114612fab57612fd8565b60ff19851688528388019550612fd8565b60008b81526020902060005b85811015612fd05781548a820152908401908801612fb7565b505083880195505b50939b9a5050505050505050505050565b600060208284031215612ffb57600080fd5b815161192c8161298c565b634e487b7160e01b600052601260045260246000fd5b60008261302b5761302b613006565b500490565b60008282101561304257613042612d02565b500390565b60208082526032908201527f4552433732313a207472616e7366657220746f206e6f6e20455243373231526560408201527131b2b4bb32b91034b6b83632b6b2b73a32b960711b606082015260800190565b6000826130a8576130a8613006565b500690565b6000602082840312156130bf57600080fd5b815161192c81612bc5565b6001600160a01b03858116825284166020820152604081018390526080606082018190526000906130fd90830184612934565b9695505050505050565b60006020828403121561311957600080fd5b815161192c816128d5565b60008251613136818460208701612908565b919091019291505056fea2646970667358221220771d93fffa2951b0c43c978b5c9a363f6817879ee5b491343863c0ac9f92e69764736f6c63430008090033697066733a2f2f516d564263506b664244316b3873703467536337326d5770567a437a7a577541337a3845344e4a3339524c6331532f",
  "linkReferences": {},
  "deployedLinkReferences": {}
}